:020000040800F2
:10000000982000204D010008D982000821470008EF
:10001000F18100082D0D0008A5F200080000000085
:10002000000000000000000000000000F9D00008FF
:10003000FF0E000800000000318D0008D5DB00082D
:10004000670100086701000819DE00086701000861
:100050006701000867010008F50F0008FB0F0008A2
:1000600067010008670100086701000867010008D0
:10007000670100086701000867010008450E0008D5
:1000800067010008670100086701000867010008B0
:1000900067010008670100080110000867010008F7
:1000A0006701000867010008670100086701000890
:1000B0006701000867010008670100086701000880
:1000C0006701000867010008670100086701000870
:1000D00067010008B5ED0008670100086701000826
:1000E0006701000867010008E5950008670100083E
:1000F0006701000867010008670100086701000840
:100100006701000867010008D5C6000867010008FC
:10011000670100086701000867010008670100081F
:10012000670100086701000867010008670100080F
:100130006701000867010008DFF80CD000F05CFBE5
:100140000048004709F8000898200020064880472A
:1001500006480047FEE7FEE7FEE7FEE7FEE7FEE7AC
:10016000FEE7FEE7FEE7FEE715DE000839010008BE
:100170002DE9F05F0546002092469B4688460646DC
:10018000814640241BE0284641464746224600F06F
:100190007DFA53465A46C01A914110D3114618466B
:1001A000224600F064FA2D1A67EB01084F462246FA
:1001B0000120002100F05BFA17EB00094E41201EE0
:1001C000A4F10104DFDC484631462A464346BDE837
:1001D000F09FD2B201E000F8012B491EFBD270471C
:1001E0000022F6E710B513460A4604461946FFF703
:1001F000F0FF204610BD421C10F8011B0029FBD166
:10020000801A7047F0B480EA0102D40F4200B2EBCA
:10021000410F02D20246084611464A0042D0C30DA1
:10022000DDB2C1F3C752AD1A202D35DAC1F3160184
:1002300041F4000204B15242C5F1200602FA06F16F
:100240002A411044B3EBD05F23D0C4B1012DA0EB01
:10025000C35009DCF0BC4FF0004202EAC352DBB2EB
:1002600000F5000000F03DBA400000F1807000EBA6
:10027000C350A0F1807040EAD170490009E04908FC
:1002800041EAC071A0EBC35000F50000400800EB4C
:10029000C350F0BC00F01CBA6142012202EB4101E4
:1002A000001BF6E7F0BC704781F00041AAE780F040
:1002B0000040A7E780EA010210B502F000434000C9
:1002C00022D04A001FD0010E01EB1261C0F356008C
:1002D000C2F3560240F4000042F40002A0FB0220E8
:1002E00000047F39140400D0401C50EA124001D4AD
:1002F0004000491EC2B20C0604EBD010401C40085E
:10030000802A02D003E0002010BD20F00100002967
:1003100000DA0020184310BD30B480EA010202F078
:10032000004530F0004221F0004013D090B1C30DE1
:10033000D40DC2F31601C0F31600E41A41F4000113
:1003400040F400027D34914201D3641C00E0490076
:10035000002C02DA30BC002070474FF4000000236C
:10036000914201D3891A034340084FEA4101F7D172
:1003700051B1914202D14FF0004105E002D24FF05D
:10038000010101E06FF0010103EBC450284430BCCF
:1003900000F09EB92DE9FE4F804681EA0300C00FB0
:1003A0000C46009021F0004123F00045B8EB02001C
:1003B000A94105D24046214690461C460B460246BE
:1003C00023F00040104347D0270DC7F30A00C3F3C2
:1003D0000A510290401A019040286BDAC3F31300CF
:1003E00040F4801B0098924620B10023D2EB030A10
:1003F00063EB0B0B01985946C0F14002504600F0E8
:1004000036F906460D4650465946019A00F04EF917
:1004100010EB08006141002487EA115284EAE77377
:100420001A4340D0009A62B3019A012A4FEA075258
:1004300015DC001B61EB02014FF0004202EA07529B
:10044000CDE90042001C41F5801132462B4600F0F8
:1004500085F903B0BDE8F08F40462146F9E7001B5F
:1004600061EB0201001C41F5801300185B4120186C
:10047000A2F5001747EB030140EAD570B6196D41AC
:1004800011E06D084FEA360645EAC0754FEA07529B
:10049000001B61EB0201001C41F5801149084FEA85
:1004A00030000019514132462B4603B0BDE8F04FF1
:1004B00000F045B90098012240000023D0EB020271
:1004C00063EBE073009821464FEAE074B8EB00005C
:1004D00061EB0401E9E783F000435BE781F0004151
:1004E00058E72DE9FE4F81EA030404F0004421F0AF
:1004F000004100944FF0000B23F0004350EA010448
:100500005ED052EA03045BD0C3F30A54C1F30A5528
:100510002C44A4F2F3340194A0FB0254C1F3130160
:1005200041F48011C3F3130343F4801301FB02442D
:1005300000FB034E840A970A44EA815447EA835732
:10054000A4FB076802958D0A05FB07854FEA932CEB
:1005500004FB0C542705029D4FEA065847EA16375C
:10056000B5EB08056EEB070C870E920E47EA811774
:1005700042EA8312A7FB0201B6EB0B0164EB000415
:100580002B0D43EA0C335E1844EB1C50DA465146FF
:10059000E7FB0201C5F313044FEA0B3343EA14539C
:1005A0004FEA0432019C43EA0603A4F10C040294CE
:1005B000009CCDE900B400F0D1F803B0BDE8F08FA5
:1005C00000200146F9E7C10F80EAE0700844CA073D
:1005D0009623002100F085B896230022114600F0F2
:1005E00080B80EB5C10F80EAE0700844CA07002148
:1005F00040F233438DE80E000A460B4600F0AEF899
:1006000003B000BD00F0004220F00040C10DC0F377
:10061000160040F400007F2901DA00207047962977
:1006200003DCC1F19601C84001E096398840002AF8
:10063000F4D04042704701F0004330B421F0004153
:1006400050EA010206D00A0DA2F56072C1F313014F
:10065000002A02DC30BC00207047440F44EAC10489
:10066000C100E01830BC00EBC25000F031B8202AC5
:1006700004DB203A00FA02F1002070479140C2F1F9
:10068000200320FA03F3194390407047202A04DB2B
:10069000203A21FA02F00021704721FA02F3D040FB
:1006A000C2F120029140084319467047202A06DB18
:1006B000CB17203A41FA02F043EAE07306E041FA30
:1006C00002F3D040C2F1200291400843194670471E
:1006D0000029A8BF7047401C490008BF20F0010056
:1006E000704710B4B0FA80FC00FA0CF050EA010434
:1006F00004BF10BC704749B1CCF1200421FA04F4C6
:1007000011FA0CF118BF012121430843A3EB0C019E
:10071000CB1D4FEA00614FEA102042BF002010BC01
:10072000704700EBC35010440029A4BF10BC7047B1
:10073000401C490008BF20F0010010BC704710B5F4
:10074000141E73F1000408DA401C41F100019218F4
:100750005B411A4301D120F0010010BD2DE9F04D9D
:1007600092469B4611B1B1FA81F202E0B0FA80F2F2
:1007700020329046FFF77BFF04460F4640EA0A000E
:1007800041EA0B0153465A46084313D0114653EA37
:10079000010019D0C8F140025046FFF777FF054627
:1007A0000E46504659464246FFF761FF084305D0C2
:1007B000012004E020463946BDE8F08D00200543C5
:1007C00046EAE0762C4337430A986305E40AA0EB37
:1007D00008000022FD0A44EA47540A3002D50020EE
:1007E0000146E9E7010510196941DDE908450019ED
:1007F0006941BDE8F04DA2E7064C074D06E0E06810
:1008000040F0010394E8070098471034AC42F6D357
:10081000FFF796FC240601084406010830B58C1841
:1008200010F8012B12F00F0301D110F8013B12094F
:1008300006D110F8012B03E010F8015B01F8015B11
:100840005B1EF9D101E001F8013B521EFBD1A14230
:10085000E6D3002030BD0000B0B5044600688168D2
:10086000490701D40020B0BD8168890704D481689C
:100870004E4A11401031816001F0FEFB05462068B0
:1008800080684007EED501F0F7FB401B0328F6D344
:10089000206880684007F2D5A06D40F01000A06588
:1008A000E06D40F00100E0650120B0BDB0B5016829
:1008B000044688688A6880074FF0000027D412F049
:1008C000010224D0886800F00500012816D188684C
:1008D000364A1040023088600320086001F0CCFBEB
:1008E000054620688068C00712D001F0C5FB401B98
:1008F0000328F6D320688068C007F2D0A06D40F0CE
:100900001000A065E06D40F00100E0650120B0BD81
:100910000020B0BD7CB504460020019021688A68A3
:10092000D2070ED1214E886806F12F02104209D05D
:10093000A06D40F01000A065E06D40F00100E065A2
:1009400001207CBD8868304040F001008860184874
:100950000068000204D4607E01280ED100207CBD16
:10096000144815490068B0FBF1F00130019001987E
:100970000028F0D001980138F8E701F07DFB05462A
:1009800020680168C907E9D18168C90704D1816875
:10099000314041F00101816001F06EFB401B0328F2
:1009A000EED320680068C007EAD1C1E7E8FFFF7F07
:1009B0000827014018010020400D0300BFB50025A5
:1009C00004460395CDE9015507F090FA144800F06C
:1009D00085FC08B100F034FB114801A90395CDE96D
:1009E000014500F003FD08B100F02AFB0C4800F0BF
:1009F000BBFF08B100F024FB094C4FF0FF3120464B
:100A000000F054FF204600F0DDFF204600F00EFE0F
:100A10000546204600F0C2FD284604B0B0BD00BF28
:100A2000A0130020F0B589B005AE0C4605460021A4
:100A3000102230460EF013FF3046314622460EF0AB
:100A400009FD9DF914000021002812D40F2918D0A7
:100A500072185278D30943EA4000705401311046AD
:100A6000F4E772185278D30943EA40007054013118
:100A700010460F29F5D19DF82300872181EA400017
:100A800002E09DF8230040008DF82300D4F8140103
:100A900010280AD104F201100021102941D0425C33
:100AA000735C5A4042540131F7E79DF9141000225B
:100AB000002912D40F2A18D0B3185B78DF0947EA4F
:100AC0004101B15401321946F4E7B3185B78DF09EC
:100AD00047EA4101B154013219460F2AF5D19DF878
:100AE0002310872282EA410102E09DF82310490089
:100AF0008DF823108021204480F801110021D4F8C2
:100B0000140101301028C4F81401F4D304F20110C8
:100B10000021102905D0425C735C5A4042540131D7
:100B2000F7E70020102809D02118013091F8F120B2
:100B300091F801315A4081F8F120F3E701AE04F158
:100B4000F101102230460EF076FE3046294622464C
:100B50000EF080FC05A8002110220EF080FE09B0E6
:100B6000F0BDB0B50446F1300021102200250EF092
:100B700076FEC4F8145120460021F022BDE8B040B2
:100B80000EF06DBE0246084610210EF0BFBD2DE9E5
:100B9000F04385B00E46D0F8141114468046C9B310
:100BA00008EB0100C1F1100527463146A54238BFC8
:100BB0002F4600F20110BAB20EF03DFED8F8140133
:100BC000A5423844C8F814014CD210284AD300205A
:100BD00010280AD008EB0001013091F8F12091F8BB
:100BE00001315A4081F8F120F2E708F1F1050DF1E9
:100BF00004091022484629460EF01DFE4846494683
:100C000042460EF027FC2846494610220EF013FEFD
:100C1000E41B3E4408F1F10701AD112C1AD300206A
:100C2000102805D0395C325C514039540130F7E767
:100C30002846394610220EF0FEFD28462946424637
:100C40000EF008FC3846294610220EF0F4FD103C48
:100C50001036E2E708F20110A2B231460EF0EBFDC9
:100C6000C8F8144105B0BDE8F0830000032819D886
:100C7000F8B50D4DC600DE4C294F082105F58070F2
:100C8000F040C2B22046B84708481021F040C2B236
:100C90002046B84725FA06F02021C2B22046B847C0
:100CA000BDE8F8400020704700000101000101008C
:100CB0001621002808BF0F21084670470020704702
:100CC00070B586B00024059403F030FF032001AD19
:100CD000124ECDE903400120C54C29460290102058
:100CE00001902046B0472020294601902046B04779
:100CF0000820294601902046B047094D2046202172
:100D00000022A847204610210022A847204608219B
:100D10000022A847002006B070BD00BFCD1E00080D
:100D20006D2000080120704701207047FEE72DE983
:100D3000F043CBB0022449B3DDF84891B9F1000F7C
:100D400024D0074601A81D4690460E46FFF709FF2E
:100D50006946284600F0E8F90446B8B90098411CF5
:100D600001A8FFF70FFF27B101A839461022FFF7AE
:100D70000EFF01AD314642462846FFF708FF47A85F
:100D80002946FFF74FFE4798C9F8000020464BB0B0
:100D9000BDE8F083B8B170B50C4C4FF0FF320023C2
:100DA0008B420ED0C55C6A400025082D07D202F0A8
:100DB000010601357642264086EA5202F5E7013304
:100DC000EEE7D04370BD0020704700BF2083B8ED30
:100DD000B0B586B01948016841F48041016000F067
:100DE0000FFE00F019FE00F011FE03200121049017
:100DF000002002910390059003F07EFE03F07CFE3C
:100E00000F4C4FF4805001AD01902946204601F06F
:100E10005DF84FF4005029460190204601F056F845
:100E200020464FF48051002201F020F920464FF473
:100E30000051002201F01AF906B0B0BD9008005828
:100E400000040048014800F0B5BE00BF04140020B3
:100E500010B51049436C104C01F1640223F00303F8
:100E6000C2640268A24238BF04F57E71194414239B
:100E7000A24281646FF0070151FA82F14FF0010242
:100E8000B1FBF3F128BF073101F01F0102FA01F1B4
:100E9000016510BD1C0802400804024010B54368FB
:100EA00007490124543003F07F0301F14002013B64
:100EB00001EB830103F0030304FA03F30EC010BD3A
:100EC00000090240F0B500F14C0670CE656016B125
:100ED000D0E91645656085680468D0E9106001278F
:100EE00000F01C00102D07FA00F0706008466360E7
:100EF00008BF1046A06008BF0A46E260F0BD704718
:100F00001FB504460020022CCDE90200CDE9000007
:100F100003D0032C22D1022000E001208DF8000034
:100F2000180A8DF804208DF801108DF807308DF81F
:100F30000800100C8DF80600100A22468DF80500F6
:100F4000080C8DF80300080A01218DF8020068469C
:100F50000CF0D3FA002818BF0E2000E00A2004B0DD
:100F600010BD0000BCB504464FF090401021002297
:100F700001F07CF84FF47A70114D1349082300906A
:100F800010486A1C02F013FB08B100F059F84FF04A
:100F900090401021012201F069F86878EE280ED106
:100FA000A878DD280BD1B5F8030000BA000C20802A
:100FB00001202870B5F8050000BA000C6080BCBDA7
:100FC00048010020E81400203501002010B5084C2D
:100FD00004210122204601F049F8642000F0E3FEDC
:100FE000204604210022BDE8104001F03FB800BFB8
:100FF00000080048012000F05FBF022000F05CBF45
:10100000402000F059BF00207047000010B5044692
:101010000CF090F80649084B064A0012C4E9021386
:10102000064922612160FFF7CEFA6060002010BD02
:1010300000004842AB0305000D093E0000007A4461
:10104000EFF3108072B6FEE780B50CF057F840F66B
:10105000B831884201D9FE200DE0B0F5E16F01D230
:10106000002008E00549C0EBC01001EB40004FF440
:101070009661B0FBF1F0C0B280BD00BF1006F9FF71
:1010800010B595480068411C00D010BD00F0FEFF6F
:10109000044601F001F8444001F004F8604010BD3E
:1010A000008871B949F6B02142F210738A4238BF04
:1010B0004FF47A73B2F5616F38BF6423834228BF5F
:1010C0001846002808BF01207047000070B50C4A80
:1010D00092F8203083B1002402F11C059C420BD20F
:1010E0000E78864209D00E1DA94204F1010408BF02
:1010F00002F10C063146F1E70021084670BD00BF41
:10110000740B002010B5074A0223043A3BB112F8D1
:10111000044F013B8442F9D100200A6010BD0B202E
:1011200010BD00BF0C01002010B5094A0023126851
:1011300003F11104BB2C09D013441B7C83422346CA
:10114000F6D1101901380860002010BD032010BD31
:101150005812002071B10138032884BF0520704760
:10116000DFE800F0020A10170D48006802690A6003
:1011700001690CE0092070470948006842690A606B
:10118000416904E00648006882690A608169016279
:1011900003E003480068C06908600020704700BF92
:1011A000980B0020E0B50B498DF8010091F87420F0
:1011B00091F8400091F880108DF8022000294FF03E
:1011C0000E02694608BF0D228DF800200AF081F951
:1011D000C0B28CBD8C850020FEB56846FFF716FFB7
:1011E0000198FFF70FFA06B080BD0000F0B585B09A
:1011F000064613480D4613498457304609F04AFA0B
:1012000001461F48EAB20023072E476A4FF001004B
:101210000BD10525CDE90053CDE902204FF47A70BA
:10122000002304FB00F2002007E00825CDE900536D
:10123000CDE90220012022460123B84705B0F0BDC8
:101240006CFE00080CFE0008BFB50C460A490546B6
:1012500009F020FA0146E2B2012000230824CDE97A
:101260000043CDE902200548012342570448446A5F
:101270000120A04704B0B0BD2CFE000874FE000899
:1012800074FF00080348016802689142FBD1C8431B
:10129000704700BF08280040B0B504460E480168FA
:1012A0004A1C08D009BA61604168E1704268100EBA
:1012B000110C120A0CE000F0E9FE054600F0F2FE07
:1012C000054400F0E9FE010E6560020CE170010AC0
:1012D0006170A2702070B0BD8075FF1FF8B5044624
:1012E0000020009094F85400012801D1022544E028
:1012F000012084F854002046FFF7D8FA05462068FC
:101300008268A16DD20728D121F4817148F20303CC
:101310000231A165C168C2689A4301EA03073249F4
:101320000023C2600022082B29D086680E4006F1F7
:10133000004686608668B6F1FF3F07DC009E0136F6
:101340000096009EB6F52E3FF4D30CE0D0F8B460C2
:10135000013306F07F063244E5E741F0100000213A
:1013600084F8541008E00020012584F85400A06D92
:1013700040F0100020F00200A0652846F8BD836808
:101380000B4043F001038360D0F8B43023F07F03B7
:1013900043EAD202C0F8B4208268114041F0020151
:1013A000816000F069FE064620688168C90712D096
:1013B00000F062FE801B0328F6D320688068C00717
:1013C000F2D0A06D012540F01000A065E06D40F066
:1013D0000100E065D1E7C1683943C1600121A06D1A
:1013E00061F30100BBE700BFE8FFFF7FF8B5002213
:1013F000009290F85420012A01D10221C0E001227C
:1014000080F85420026893685B0726D403694C680F
:1014100043F00403022C26D15A4CA3420B6801BFAF
:10142000D9435D4C61EA0401946A04BF2140916292
:10143000B3F1FF3F00F3A0807B49554C0A68A342FB
:1014400000F08880534CA34200F087804F4CA342A9
:1014500040F0928002F0A07281E0816D41F02001A5
:101460008165012189E0474DAB4208D1144654F80B
:10147000285F0B681E466FF39F46354325E00B68D7
:101480009D03C3F3846693FAA3F518BFB5FA85F6F6
:10149000076ED0F81CE004F01F0506FA05FC0F26C5
:1014A000BEEB940F06FA05F627EA060747EA0C0793
:1014B00007660BD99C0EF64304F00F0404FA05F5F9
:1014C000144654F8287F3E403543256054698968A6
:1014D0002D4DB3F1FF3F01EA032124EA032401EA81
:1014E000050141EA0401516146DCDE4A27491568DD
:1014F0008B4208BF15F4000105F0E07413D02449B5
:101500008B4208BF15F080712FD0224E0021B342CC
:1015100008BF15F4800330D1116821F0E071214338
:1015200041F4800127E0116821F0E071214341F48A
:1015300000011160C749C84A0968B1FBF2F10C22E9
:1015400001EB410102EB810100910099A1B10099E9
:101550000139F9E702F4400201E002F0C0720B68C1
:1015600023F0E0731A440A6006E0116821F0E0718C
:10157000214341F0807111600021002280F8542045
:101580000846F8BD0400008000FFFF03001000B013
:10159000004000B8002000B4FFFF030070B558B150
:1015A0000446806D40F00200A0652046FFF754F924
:1015B00020B1054620680DE0012531E02046FFF707
:1015C00075F9054608B90120A0652068A04A816820
:1015D00011408160416840F29F3200269143416092
:1015E0000260104AC1681140C160016921F04041A8
:1015F0000161416921F007014161016A01F0F021B7
:101600000162816A86629748016821F0FE7101607B
:10161000204600F029F9E665266684F85460A66540
:10162000284670BD00023E83082701400068006C18
:1016300070470000F8B50446002000907CB32546B2
:1016400055F8580F30B9204600F01AF9002084F8F8
:101650005400E06521688868C00013D488687C4A1B
:1016600010407D4A00F1805088607A480068B0FBE5
:10167000F2F0022202EB40000090009810B10098B6
:101680000138F9E78868C0000BD4A06D40F0100065
:10169000A065E06D40F00100E065012002E001205E
:1016A000F8BD00208A68C2F380022B6803F01003A3
:1016B000D2182A6803D042F010010120C5E022F4BC
:1016C000817202322A608A68D2072CD104F1080C98
:1016D0004FF400129CE88810BCF1000F48BF2CF0BA
:1016E0000042267E43EA8633667E43EAC633A67E00
:1016F00043EA46333B43276B002F18BF43F4805324
:101700001A4394F82C3042EA430394F82020012A2B
:101710000ED15EB1A26D42F02002A265E26D42F0F0
:101720000102E26504E0D4F810C02DE043F48033F8
:10173000666A26B106F4E0721A43A36A1343CA68C4
:10174000464E32401A43CA606368E26C03F040467A
:10175000164394F83C20012A09D104F1400E9EE87A
:10176000844032433A4342EA0E0242F001060A69DB
:101770003B4FB3F1004F02EA070242EA06020A6158
:1017800018BFB3F1404F25D1D4E90D324E69BCF1F9
:10179000000F26F0070646EA03064E614E6926F062
:1017A000700646EA02124A610ED0BCF5001F34D121
:1017B000226E0027202F17D022FA07F606F00F0618
:1017C0000F2E15D00437F5E70E4656F8282F62F095
:1017D0000F0221E0B3F1804FD6D09A0C214B1E6846
:1017E00062F395461E60CFE70E4656F8287F07E065
:1017F0000E46042F56F828CF02D16CF00F020BE0F2
:10180000D4F81CC01C2707EB8C0707F01C0C6FF0EA
:101810000F0707FA0CF73A433260496901F00701F4
:10182000994206D100210122E165A16D62F3010117
:101830000BE0A06D40F0100020F00200A06554F80D
:101840005C0F40F00101012025462960F8BD00BF72
:10185000E8FFFF6F18010020400D03000102FEFFAA
:1018600002FCFF1F0827014000680E49884200D093
:1018700070470D48016821F400710160704700BF96
:1018800081B000680749884209D10748016841F4DE
:1018900000710160006800F400700090009801B0D1
:1018A000704700BF00240140600000582DE9F0415E
:1018B000044640690D46082801D1082704E0206845
:1018C000C068C0073AD1042700F0D6FB80466E1CE2
:1018D00020680168394216D1002EF9D000F0CCFB07
:1018E0001DB1A0EB0800A842F2D920680068384278
:1018F000EED1002084F85400A06D40F00400A065F3
:101900000320BDE8F081A16D41F40071A165C168BB
:1019100011F4406F21D1A17EF9B9016809071CD5E6
:101920008168490711D4416840F2011221F00C018D
:101930004160A16D91430131A1650EE0A06D40F0C1
:101940002000A0650120BDE8F081A16D41F02001DB
:10195000A165E16D41F00101E165217E09B90C212C
:1019600001600020BDE8F08110B504460068806881
:10197000400703D494F85400012801D1022010BD7F
:10198000012084F854002046FEF7C4FF18B100215E
:1019900084F8541010BD2168A06D40F60172084B08
:1019A00090431C2200F58070A0650020E0650A606D
:1019B00084F854008A681A4004328A6010BD00BF5F
:1019C000E8FFFF7F10B5044690F85400012804BFDB
:1019D000022010BD012084F854002046FEF73CFF91
:1019E00050B92046FEF762FF30B9A06D40F20111F8
:1019F00088430130A0650020002184F8541010BDF8
:101A00000848016841F0010101607047054801681C
:101A100041F00401016070470248016841F0020191
:101A200001607047042004E050B3B0B590F8251071
:101A3000022927D1016800F140041CCC0D6803F095
:101A40001C0325F00E050D60256825F480752560C2
:101A50000C6824F001040C60012101FA03F35360C7
:101A6000D0E913235360426D32B1136823F48073BD
:101A70001360D0E91623536080F82510002104E09C
:101A8000012107E00421C1630121002280F8242004
:101A9000BDE8B04008467047B0B590F8251002295F
:101AA0002BD10168D0E91032846C0D6825F00E0549
:101AB0000D600D6825F001050D60216821F480712D
:101AC000216002F01C01012202FA01F15960D0E903
:101AD00013134B60416D31B10B6823F480730B60BD
:101AE000D0E916134B60002180F8241080F82520DF
:101AF000826B2AB19047002102E00421C1630121D9
:101B00000846B0BD60B10068CB06026805D5C902C1
:101B100054BF22F4801242F4801202600020704709
:101B200001207047B0B504460120002C3ED0226849
:101B30001425116821F001011160764901F10803B3
:101B40009A42754B38BFA1F5806138BF03F58063B9
:101B50001344B3FBF5F39D00C4E91015002515608F
:101B60001C2202EA8302904048602046FFF770F989
:101B7000606804F148030ECB013803280D60536000
:101B800007D82046FFF78AF904F1540207CA056016
:101B90004A60E563C4E91555E565C4E90B55C4E938
:101BA0000D5584F8245084F8255000E0012528467E
:101BB000B0BD00BFF0B5D0E91023016814680E680D
:101BC00003F01C0375070ED504259D4015EA040794
:101BD00009D00B689B0603D40B6823F004030B6049
:101BE0005560016B32E0B5071BD502259D4015EA13
:101BF000040716D00A68920606D40A6822F00A0280
:101C00000A60012280F82520002280F82420124A50
:101C100002F17C03994288BF02F580621560C16AB7
:101C200014E0350716D508259D402C4012D00C68CD
:101C300024F00E040C60012101FA03F3536000222A
:101C4000C16380F8242080F82510416B11B1BDE8F4
:101C5000F0400847F0BD00BF0400024000284BD010
:101C6000F8B5044602202B49142784F8250004F116
:101C70000806206801F1080268CE9042264A38BF63
:101C8000A1F5806138BF02F580620244B2FBF7F231
:101C90009200C4E9101247F6F072016891430160A6
:101CA00045EA0301626931431143A2691143E269C4
:101CB0001143226A11430268114301602046FFF775
:101CC000C7F8A06804F14803B0F5804F06BF0020B4
:101CD0006060606800F07F050ECB013803280D605E
:101CE00053600BD82046FFF7D9F804F154020023C3
:101CF00007CA03604A6005E0012070470020C4E97C
:101D00001500E06500200121E06384F8240084F8D8
:101D10002510F8BD00040240F8FBFDBFB0B5044635
:101D200090F82400012804BF0220B0BD012084F8EF
:101D3000240094F82500012813D1022084F82500FE
:101D40000020E0632068056825F001050560204655
:101D5000FFF7B8F82068226B01684AB141F00E0124
:101D60000CE0002084F824008020E0630120B0BD56
:101D700021F004010160016841F00A010160A16CD9
:101D80000A68D20303D50A6842F480720A60616D62
:101D900019B10A6842F480720A60016841F00101D9
:101DA00001600020B0BD81B00090009801B00CF03F
:101DB00067B800002DE9FC4FA44A4FF00008002549
:101DC000002390424FF0070208BF022200920191C7
:101DD00031FA03F608BFBDE8FC8F012202FA03F6D0
:101DE00016EA010C56D008F00C0907224FEA930EB0
:101DF000B0F1904F02FA09F4964A52F82E7007EAB1
:101E0000040A07D0944ADDF800B0904208BF4FF0B2
:101E1000010B01E04FF0000B0BFA09F7BA451AD19C
:101E20008B49D1F8807027EA0C07C1F88070D1F88F
:101E3000847027EA0C07C1F884700F6827EA0C0742
:101E40000F604F6827EA0C074F60824951F82E70E7
:101E5000A74341F82E7003212C4601FA05F70568C7
:101E60000F213D43056008F01C0501FA05F56FF0F0
:101E7000030101EA53020244116AA9432546116293
:101E80008168B94381604168B1434160C168B94329
:101E9000C160019908F104080235013398E700BFD9
:101EA000022804D0402818BF7047042000E0082012
:101EB00000210DF0E3B8000003490A68024208BFA0
:101EC00070470860FFF7ECBF0C0800582DE9F84F89
:101ED0005E4A604F4FF000094FF0010B4FF00008D1
:101EE000002390424FF0070208BF022200920C68C4
:101EF00034FA03F208BFBDE8F88F0BFA03F214EAD4
:101F0000020A00F09D804E6806F0030CACF101045B
:101F1000012C19D80324856804FA08F425EA040E74
:101F2000CD6805FA08F545EA0E058560C6F300158B
:101F300005FA03FE456825EA020242EA0E026FEA4C
:101F4000040E42605A000CE00322BCF1030F02FAB7
:101F500008F26FEA020E424603D142464FF0030CEC
:101F600021E0C4688D68BCF1020F04EA0E0405FA92
:101F700002F544EA0504C46015D109F01C040F25DC
:101F800005FA04FC6FF0030505EA53060644356ABA
:101F900025EA0C0C0D6905FA04F444EA0C043462D9
:101FA0004E6806F0030C04680CFA02F216F4403F87
:101FB00004EA0E0442EA0402026041D009F00C0671
:101FC0000722B0F1904F02FA06F44FEA930257F855
:101FD000225025EA040505D01F4CA042009C08BFF2
:101FE000012400E00024B440BC462C4347F82240C2
:101FF000174A174612684D6842EA0A04EE0258BFB3
:1020000022EA0A043C60AE027A6842EA0A0458BF37
:1020100022EA0A047C60EE03D7F8802042EA0A0430
:1020200058BF22EA0A04C7F88040AD03D7F88420DD
:1020300042EA0A0458BF22EA0A04C7F88440674605
:1020400009F1040908F10208013350E700080048CB
:10205000000800580800014000040048426902EAF4
:102060000103914341EA0341816170471823002A2B
:1020700008BF2823C150704703480078012808BFD3
:102080000BF034BF00207047541200200148006854
:10209000704700BF9075FF1F01480068704700BF80
:1020A0009475FF1F01480068704700BF9875FF1FB7
:1020B00090F84120202A03D190F84020012A01D134
:1020C000022118E0242280F841200268136823F0DE
:1020D00001031360136823F48053136013681943DA
:1020E0001160116841F0010111600021202280F887
:1020F000401080F841200846704790F84120202A7F
:1021000003D190F84020012A01D1022117E02422B6
:1021100080F841200268136823F0010313601368FC
:1021200023F4706343EA01211160116841F0010159
:1021300011600021202280F8401080F841200846DC
:102140007047000010B3B0B5044690F8410028B9BC
:10215000002084F84000204600F07CF9242084F818
:102160004100D4E90003D4E90212056823F070634A
:10217000012A25F0010505600361836823F400430B
:10218000836005D141F40041816009E0012070477E
:1021900041F40441022A816004BF4FF400614160B0
:1021A00041680F4A04F1100511434160C16821F4F0
:1021B0000041C1602ECD114341EA0321C160216A73
:1021C00029430160016841F00101016000202021E4
:1021D000606484F84110206384F84200B0BD00BF01
:1021E000008000022DE9F843044690F841002028C1
:1021F00003D194F84000012803D102273846BDE8F6
:10220000F88301271E461546884684F84070FFF77C
:1022100033FF8146009020464FF4004101221923EC
:1022200002F090FB0028E9D1222084F84100102020
:1022300084F8420000206064668560636562364809
:10224000618DB1F5807F06D3FF21FF224FF08073AF
:102250002185009005E0618D4FF00073218500908D
:10226000CAB22046414602F057FB089F0025FF26D0
:10227000608DC8B3204639464A4602F093FBC8BB7E
:102280002068616A406A0870608D01386085606A04
:1022900001306062208D411E21850904608DE7D1E7
:1022A0000028E5D02046802100223B46CDF8009052
:1022B00002F048FBF0B9608DB0F5807F21BF268524
:1022C00000952046414627BFFF224FF08073608D66
:1022D00020853FBF0095C2B22046414638BF4FF02F
:1022E000007302F019FBC3E7204639464A4602F064
:1022F0009DFB08B1012781E720682021544B00276E
:10230000C16142681A40426084F8411084F840700C
:1023100084F8427072E700BF002400802DE9F84382
:10232000044690F84100202803D194F84000012889
:1023300003D102273846BDE8F88301271E4615461B
:10234000884684F84070FFF797FE8146009020464B
:102350004FF400410122192302F0F4FA0028E9D1D8
:10236000212084F84100102084F84200002060649D
:102370006685606365623548618DB1F5807F06D3FF
:10238000FF21FF224FF080732185009005E0618DD1
:102390004FF0007321850090CAB22046414602F0FA
:1023A000BBFA089F0025FF26608DC0B32046394642
:1023B0004A4602F05FFBC0BB616A206811F8012B3E
:1023C0008262608D013860856162208D411E2185A9
:1023D0000904608DE8D10028E6D020468021002243
:1023E0003B46CDF8009002F0ADFAF0B9608DB0F543
:1023F000807F21BF268500952046414627BFFF22CA
:102400004FF08073608D20853FBF0095C2B220469B
:10241000414638BF4FF0007302F07EFAC4E7204611
:1024200039464A4602F002FB08B1012782E72068DC
:102430002021074B0027C16142681A40426084F89E
:10244000411084F8407084F8427073E700200080E7
:1024500000E800FE7047000080B5032000F04EF851
:1024600000F08CFA3A4908600F2000F007F808B134
:10247000012080BD00F004F8002080BD00207047DE
:102480007047000000280CD400F01F010122400911
:1024900002FA01F1034A42F82010BFF34F8FBFF355
:1024A0006F8F704780E100E0002808D400F01F0122
:1024B0000122400902FA01F1014A42F82010704756
:1024C00000E100E070B5134B4FF0FF351B68C3F31C
:1024D0000223DC1E83F0070338BF0024042B28BF2F
:1024E000042305FA04F605FA03F3B2439943A14025
:1024F0001143BDE870400CF047BF00BF05494FF6DF
:10250000FF030A681A4060F30A2203481043086078
:10251000704700BF0CED00E00000FA0522483222AF
:10252000016821F480410160094909685143094A61
:10253000B1FBF2F14A1E43698A4203D213F40071DF
:102540001146F7D140690321800501EAE070704728
:102550001801002040420F001348016841F48041F7
:10256000016070471049022301280A6863F30202E0
:102570000A601E490A6842F004020A600FBF30BFB9
:1025800040BF20BF20BF086820F0040008607047EB
:102590000548006800F4C060704700BF0248016849
:1025A00041F48071016070470004005810B50C467A
:1025B0000D49096801F4007118B139B9FFF7CCFF72
:1025C00004E019B1FFF7AAFF00B110BD0748012CC4
:1025D000016821F00401016004BF30BF10BD40BF9D
:1025E00020BF20BF10BD00BF1404005810ED00E054
:1025F000F8B504468078644EC00742D0FFF7CEFF9E
:10260000FFF73AFD0546D6F8F403C00506D4FFF7F8
:1026100033FD401B0228F6D9032533E0606BD6F862
:10262000841001F44071814224D0D6F88410D6F889
:10263000842042F48032C6F88420D6F8842022F424
:102640008032C6F8842021F4407289070146C6F81A
:1026500084200FD5FFF710FD054641F28837D6F8E4
:102660008400800705D4FFF707FD401BB842F6D968
:10267000D2E7616BD6F8840020F440700843C6F8B6
:10268000840000252068C10706D06168F26F22EA45
:10269000114289B21143F167810706D5A168F26F33
:1026A00022EA114289B21143F167810605D52169F9
:1026B000F26F22F440621143F167810509D5216A66
:1026C0004FF6FF72F36F62EA01021A4042EA0141DB
:1026D000F167410509D5616A4FF6FF72F36F62EA4F
:1026E00001021A4042EA0141F167010509D5A16AD8
:1026F0004FF6FF72F36F62EA01021A4042EA0141AB
:10270000F167410603D5606902F02EFA20680106E0
:1027100003D5A06902F028FA2068C10503D5E06955
:1027200002F022FA2068C1060DD5E168F26F22F4AA
:102730004072B1F5807F42EA0102F26703D131684D
:1027400041F08071316001040BD5216BF26F22F0F2
:10275000404242EA0102F26719B9316841F08071E2
:10276000316040040DD5E06AF16F21F04051B0F1C5
:10277000005F41EA0001F16703D1306840F4803026
:1027800030602846F8BD00BF0C0000582DE9F84322
:10279000002800F0BC80764F05460C46386800F0F3
:1027A0000700884212D2386820F0070020433860C2
:1027B000FFF762FC0646386800F00700A04205D02B
:1027C000FFF75AFC801B0228F5D971E02868B9464A
:1027D0007E4F810712D5A868396821F0F0010843BF
:1027E0003860FFF749FC06463868C00305D4FFF798
:1027F00043FC801B0228F7D95AE02868810615D5CA
:102800006869D7F8001121F0F0010843C7F800010A
:10281000FFF732FC0646D7F80001800305D4FFF726
:102820002BFC801B0228F6D942E02868410616D509
:10283000A869D7F8001121F00F0141EA1010C7F87C
:102840000001FFF719FC0646D7F80001C00305D4C4
:10285000FFF712FC801B0228F6D929E028684107FF
:1028600012D5E868396821F4E06108433860FFF761
:1028700003FC06463868800305D4FFF7FDFB801B88
:102880000228F7D914E02868010715D528693968A6
:1028900021F4605141EAC0003860FFF7EDFB0646C5
:1028A0003868400307D4FFF7E7FB801B0228F7D9FD
:1028B0000320BDE8F8832868C0071DD1D9F80000BF
:1028C00000F00700A04225D9D9F8000020F0070049
:1028D0002043C9F80000FFF7CFFB05464846D9F86A
:1028E000000000F00700A04214D0FFF7C5FB411B19
:1028F00003200229F2D931E068684FF0B04198B165
:1029000003282DD002282FD1096889030FD4012074
:10291000BDE8F88300F032F81649086016480068F0
:10292000BDE8F843FFF7AABD09688907EFD5396804
:1029300021F0030108433860FFF79EFB064641F291
:1029400088386868396801F00C01B1EB800FB5D0A8
:10295000FFF792FB811B03204145F2D9BDE8F883C4
:1029600009688901D3D5E2E709684905CFD5DEE7D3
:1029700000400058180100207800002080B500F0C9
:1029800029F812493C22096802EA9101024A515889
:10299000B0FBF1F080BD00BFA8FD000880B5FFF7D7
:1029A000EDFF0A490A4A0968C1F3022152F82110D1
:1029B000C84080BD80B5FFF7E1FF0449044A0968BB
:1029C000C1F3C22152F82110C84080BD0800005850
:1029D000E8FD000810B5364951F8042C086812F0DB
:1029E0000C0205D00C2A17D100F00300012813D1E6
:1029F0004FF0B0400368006800F008001B0704D4E3
:102A0000C8B14FF0B04000681CE0C8B14FF0B04012
:102A10000068C0F3031016E02648042A1CD0082AD8
:102A200019D14FF0B0421268D2025CBF44F60000E8
:102A3000C0F2E81010E0D1F88800C0F3032002E0F3
:102A4000D1F8880000201C4B002A53F8203018468B
:102A500018BF002001E00020002351F8042C02F0F0
:102A60000C020C2A22D1086800F003021148022A45
:102A70000CD0032A09D14FF0B0421268D2025CBFD9
:102A800044F60000C0F2E81000E018460A680B683F
:102A900009680124C2F3062204EB51715043C3F3C9
:102AA00002120132B0FBF2F0B0FBF1F010BD00BF3A
:102AB0000C0000580024F40034FF00082DE9F84F02
:102AC000002800F07B81E14C8346606800F00C0830
:102AD000A06800F003099BF8000080062CD49BF846
:102AE0000000C00700F08880B8F1080F7AD0B8F174
:102AF0000C0F08BFB9F1030F74D04FF0B040DBE901
:102B000001610268B6F5803F22F4801241EA0201B9
:102B1000016009D0B6F5041F40F0CF814FF0B041FD
:102B20000A6842F400120A60016841F480310160D1
:102B3000FFF7A2FA0546D2E1B8F1000F1FD0B8F1B5
:102B40000C0F08BFB9F1010F19D04FF0B046306833
:102B5000DBF82010002900F0538140F001003060C4
:102B6000FFF78AFA05463068800700F15A81FFF7BF
:102B700083FA411B03200229F5D9BDE8F88F4FF0F5
:102B8000B0410868800704D5DBF82000002800F079
:102B90001581DBF828000968090759BFD4F890109F
:102BA00009094FF0B041096801F0F001884240F294
:102BB000EF8006F0A9FC002840F000814FF0B04003
:102BC000016841F008010160DBE90912036823F0A4
:102BD000F0031A430260206820F47F4040EA01209D
:102BE0002060EEE04FF0B0400068800304D5DBF8D1
:102BF0000400002800F0E2809BF80000800732D536
:102C0000B8F1040F1DD0B8F10C0F08BFB9F1020FD5
:102C100017D04FF0B0463068DBF81010002900F0F4
:102C2000778140F480703060FFF726FA05463068FF
:102C3000400510D4FFF720FA411B03200229F6D9E2
:102C40009BE74FF0B0400068400504D5DBF810006A
:102C5000002800F0B380DBF81400216821F0FE4169
:102C600041EA006020609BF8000000072DD49BF82B
:102C70000000400753D4DBF82C0018B3B8F10C0F58
:102C800040F0E680012800F09980DBF83010A06861
:102C900000F003028A4240F09180DBF8341000F02B
:102CA00070028A4240F08A80DBF8381000F4FE425D
:102CB000B2EB012F40F08280DBF8441000F060405E
:102CC00088427BD10020BDE8F88FD4F89010DBF863
:102CD0001800002800F08180DBF81C0001F01002D1
:102CE000904200F0B18101F00302022A66D0C907C8
:102CF00000F0A381D4F8900020F00100C4F8900007
:102D0000FFF7BAF90546D4F89000800740F19381A7
:102D1000FFF7B2F9411B03201129F4D92DE7D4F8AC
:102D2000FC03C0050FD4FFF739FCFFF7A5F90546F2
:102D3000D4F8FC03C00506D4FFF79EF9411B03201D
:102D40000229F5D919E7DBF80C00002800F0F18022
:102D5000852801D0052805D1D4F88C0040F0040066
:102D6000C4F88C00FFF788F90546D4F88C0041F2CE
:102D7000883640F00100C4F88C00D4F88C0080073D
:102D80007DD4FFF779F9411B0320B142F5D9F4E670
:102D90004FF0B0410A6842F008020A600A6822F067
:102DA000F00202430A60DBF82410226822F47F421A
:102DB00042EA0121216006F0A7FB10B10120BDE825
:102DC000F88FFFF7DBFDAB490860AB480068FFF701
:102DD00055FB00287FF4D1AE81E621F00100C4F854
:102DE0009000FFF749F90546D4F8900080077FF579
:102DF0003EAFFFF741F9411B03201129F4D9BCE68E
:102E000020F001003060FFF737F905463068800791
:102E10007FF565AEFFF730F9411B03200229F5D994
:102E2000ABE64FF0B040016841F008010160DBE91A
:102E30000912036823F0F0031A430260206820F4AB
:102E40007F4040EA0120206049E600BF04000058AE
:102E50004FF0B0460228316821F08071316040F0B7
:102E60008280FFF709F905463068800140F19180C2
:102E7000FFF702F9411B03200A29F5D97DE6DBF8AB
:102E80000C0040F00400852840F0A980FFF7F4F81A
:102E90000546D4F88C0041F2883640F08000C4F832
:102EA0008C00D4F88C0000053FF5E5AEFFF7E4F8A0
:102EB000411B0320B142F4D95FE64FF0B04ADAF883
:102EC000000020F48030CAF80000DAF8000020F496
:102ED0000010CAF80000FFF7CFF805469EB14FF08A
:102EE000B046306880033FF587AEFFF7C5F8411B59
:102EF00003206429F5D940E6FFF7BEF8411B032003
:102F000064293FF63AAEDAF800008003F4D473E6A1
:102F100020F480703060FFF7AFF805463068400558
:102F20007FF5A1AEFFF7A8F8411B03200229F5D9D0
:102F300023E6FFF7A1F80646D4F88C0041F2883961
:102F400020F08000C4F88C00D4F88C0027460405DB
:102F5000FFF792F80546002C58D5A91B03203C46E4
:102F60004945F1D909E6A068444920F00300A06072
:102F7000A0680840A060FFF77FF804463068800131
:102F80007FF5A0AEFFF778F8011B03200A29F5D9D9
:102F9000F3E5A0683A490BF130070840EECF08434B
:102FA000104340EA032028434FF0B04530433843F4
:102FB000A060286840F080702860A06840F08050D1
:102FC000A060FFF759F80446286880013FF57AAE03
:102FD000FFF752F8011B03200A29F5D9CDE5FFF7C9
:102FE0004BF80546D4F88C0041F2883620F080007A
:102FF000C4F88C00D4F88C0000057FF53CAEFFF7D8
:103000003BF8411B0320B142F4D9B6E5D7F88C0058
:103010003C4641F2883620F00100C7F88C00D4F815
:103020008C0080077FF527AEFFF726F8411B0320B1
:10303000B142F4D9A1E5DBF81C00D4F8901021F0DE
:1030400010010843C4F89000D4F8900040F001004B
:10305000C4F89000FFF710F80546D4F890008007F8
:103060003FF505AEFFF708F8401B1128F5D90320FE
:10307000BDE8F88F1801002078000020FFFFFEEE69
:103080008C80C11170470000034850F82100704740
:10309000014840F82120704700B1004090F82C20F2
:1030A0000221012A12D080F82D10E849CA22CA60F4
:1030B0005322CA600A6842F020020A60FF22CA60F6
:1030C0000021012280F82C1080F82D20084670473E
:1030D00080B50AF0A5FE0130BDE880400AF0ACBE24
:1030E00010B5044624480168490604D54021816092
:1030F0002046FFF7EDFF012084F82D0010BD00BF32
:1031000090F82C200221012A17D080F82D10CF49E9
:10311000CA22CA605322CA600A6842F080020A606A
:10312000CC4A136843F480231360FF22CA60002155
:10313000012280F82C1080F82D200846704700BF2F
:103140000BF0E4BF70B50C4D04462868216B01EA12
:103150000006F00704D00120A8602046FFF7F0FF2A
:10316000B00704D50220A8602046FFF78BFF01209E
:1031700084F82D0070BD00BF54280040B0B590F811
:103180002C300222012B34D0B04BCA2480F82D20E1
:10319000B1F5807FDC604FF05304DC606FF40854BD
:1031A00008BF6FF488541D68B1F5807F04EA0504F8
:1031B0001C604FF0340408BF2C24E55825F000456E
:1031C000E55008BF01225A64B1F5807F4FF0FF023D
:1031D000DA604FF000024FF0010380F82C2080F8F5
:1031E0002D306FF0020308BF6FF00103016B19402F
:1031F00001631046B0BD00BF70B598B3044690F8A7
:103200002D0028B9002084F82C00204600F040F85A
:1032100002209C4D84F82D00CA20A8615320A8618B
:10322000204606F0F7F9D0B9E8681849261D08408D
:10323000E8604ECEA06931430843E9680843E8607E
:1032400043EA02406860D4E909012A6822F4F8528E
:10325000104308432860204606F000FA20B1FF2101
:10326000A96170BD012070BD6069D4E90712EB68E7
:1032700023F060431A4311430843E860FF20A8612C
:10328000012084F82D00002070BD00BFBFFF8FFB20
:1032900010B590B0044601A83821FCF7A1FF2068C2
:1032A0001749884229D14FF480700E904FF4803036
:1032B000019001A8FFF79CF908B1FDF7C1FE114884
:1032C0000022816B41F400418163016841F4806117
:1032D00001600021006800F480600F900F980220C8
:1032E000FFF7F0F80220FFF7DFF82A200021002284
:1032F000FFF7E8F82A20FFF7D7F810B010BD00BF9D
:1033000000280040580000582DE9F84F0D4690F86D
:103310002C1004460220012900F0968084F82D002C
:1033200001204A4F84F82C0057F80C0C00F4407B25
:10333000BBF5807F01D1002041E0EAB16869B0F1BE
:10334000803F07D0B0F5000F04D0396849065CBF54
:103350000021E97029786A78AB78EE7840EA01407C
:10336000296A40EA0220184340EA8650084395F84B
:10337000241040EA016022E03868DFF8D4A040065B
:1033800059BF4FF0000985F80390E8784FEA80595B
:103390002878D04780466878D047000240EA08483D
:1033A000A878D047404440EA090895F82400D0475F
:1033B0002A6A696942EA080242EA00600843CA21AF
:1033C000F9605321F9603968AA6AB2F5807F14D197
:1033D00021F48851BBF5807F39604FF00101796499
:1033E00019BFB862A869D5E906010843F8626868A0
:1033F0000121B8654FF4885013E021F40851BBF562
:10340000807F39604FF00201796419BF3863A86981
:10341000D5E906010843786368680221F8654FF42E
:1034200008503A68104338600A48026842F4003293
:103430000260FF20F8600020226B84F82C0011430A
:103440002163012184F82D10BDE8F88F1828004071
:10345000F195000880080058B0B50A4D286820F0A2
:1034600020002860FEF708FE04462868800607D47E
:10347000FEF702FE001BB0F57A7FF6D90320B0BD3F
:103480000020B0BD0C2800400248016841F0020154
:103490000160704710E000E040B1F8B50446406AB2
:1034A00030B10020206104F1140007E001207047D2
:1034B0006068B0F5827F03D004F11C000021016038
:1034C00094F85D0028B9002084F85C00204600F0E4
:1034D0006DF80220002384F85D002068E16802682E
:1034E000B1F5E06F41F4006522F04002026098BF40
:1034F00001230022B5F5706F18BFA2621A03D4E948
:103500000135D4E9046703F4827305F404452B44C0
:1035100006F002052B4407F001052B44A56905F4CC
:1035200000763344E66906F038063344266A06F02E
:1035300080061E44A36A03F40057B3F5005F46EA11
:10354000070606600FD1266B022E05D05EB9B1F5D5
:10355000E06F06D902262663066846F40066066018
:1035600001E00126266301F470610426B3F5005FD3
:1035700041EA0201626A06EA154541EA0501656B06
:1035800002F0100241EA020105F0080241EA0201DC
:10359000416004BFA18D0161C16921F40061C16175
:1035A00000200121206684F85D10F8BD70472DE9E8
:1035B000FE4F0446002002908DF8070094F85C004E
:1035C000012801D1022567E101201E4617468A46DF
:1035D00084F85C00FEF750FD814694F85D00D4E964
:1035E0000023D2F800C0D2F804E0012840F0A58002
:1035F000BAF1000F4FF0010518BF002F00F046810F
:10360000002E00F0438194F85D0004281CBF0520C3
:1036100084F85D0000202066A4F846602764A4F8C2
:103620004460C4F838A0C4E91300A687E687A06AFE
:10363000B0F5005F07D1106820F4005010601068EA
:1036400040F400501060E568506820F48051B5F5F2
:10365000E06F0F4698BF40F48057012E88BF0F4699
:1036600057601068400603D4106840F040001060B6
:10367000711EB3FA83F0DDF83080B5F5E06FB1FA72
:1036800081F14FEA50104FEA511140EA010061D92F
:1036900038B13AF8020BD060C4F838A0E08F013896
:1036A000E0870EF0080001270CF0040108F1010684
:1036B00087EAD00040EA9105E08F20B9B4F84600CF
:1036C000002800F0D1802068816889071BD5E18F30
:1036D000012F18D1B9B1A16B31F8022BC260E28F72
:1036E000013AE287A163E18F61B9A16AB1F5005F98
:1036F00008D11DB9016841F400710160016841F40D
:103700008051016000278168C9070DD0B4F84610C8
:1037100051B1216CC068012721F8020B2164B4F873
:1037200046000138A4F84600FEF7A6FC002EC3D0E0
:10373000A0EB09004045BFD3A7E0B3F5827F4FF06F
:10374000020508BF042840F0A180A06800283FF4CB
:103750004FAF9BE04FF6FE7BA8B1E08F022805D368
:103760003AF8020BD0604FF6FE7007E09AF80000BE
:1037700010730BF10100A16B01F1010AC4F838A02C
:10378000E18F0844E0870EF0080001250CF00401E9
:1037900008F1010785EAD00040EA9106E08F18B9E8
:1037A000B4F8460000285FD020688168890728D5D2
:1037B000E18F012D25D121B3A16BE28F022A05D320
:1037C00031F8022BC2604FF6FE7005E009780173F4
:1037D0000BF10100A16B0131E28F1044E087A1637E
:1037E000E08F68B9A06AB0F5005F09D120681EB902
:1037F000016841F400710160016841F48051016089
:10380000002520688168C90725D0B4F8461011B397
:10381000B4F84610022912D3216CC26821F8022B99
:10382000B4F84620023AA4F846202164B4F84610C1
:1038300001290FD8416841F4805141600AE0007BC2
:10384000216C0870206C01302064B4F84600013807
:10385000A4F846000125FEF70FFC002F9ED0A0EB38
:10386000090040459AD310E0A06AB0F5005F36D158
:103870002046012101224346CDF8009008F03AFE8F
:1038800068B1206E40F0020020660325002084F815
:103890005C00012084F85D002846BDE8FE8FE068EA
:1038A0002568B0F5706F03D1E8680290029816E0C1
:1038B000287B8DF807009DF80700206B02280ED1A9
:1038C0002046012101224346CDF8009008F012FE67
:1038D0000028D6D1287B8DF807009DF807002068C6
:1038E0008168C90601D4002507E0216E012541F059
:1038F000020121664FF6EF718160204641464A463B
:1039000008F01CFD0028C1D0202001252066BDE75D
:10391000012904D041B9F148816880200847F24864
:1039200081684FF480700847704700BFEE48816897
:10393000402008472DE9F04104468079012802D152
:103940006079012802D10220BDE8F08101201D46E6
:1039500016460F466071204608F09CFED74908685D
:10396000884620F4004008602046394608F062FE90
:1039700020460021002708F05DFEAF4206D2204617
:10398000314608F027FE01370136F6E7D8F8000087
:1039900040F40040C8F80000204608F09FFE0020D8
:1039A00001216071A068A171002818BF0120BDE845
:1039B000F08100BF2DE9F04104468079012802D151
:1039C0006079012802D10220BDE8F081012520465E
:1039D0001E4617468846657108F05CFE48F01000E8
:1039E0004146942818BF00252571DF4D286820F432
:1039F00000402860204608F01DFE36B117F8011B74
:103A0000204608F017FE013EF7E72868B8F1840F5A
:103A100040F40040286002D0204608F05FFE0020FD
:103A200001216071A068A171002818BF0120BDE8C4
:103A3000F08100BFAC48816820200847AA4881680F
:103A4000102008477CB5044600200DF10602122123
:103A50000223ADF806002046FFF76CFF9DF80760D3
:103A60009DF80650F00702D0204600F039F9B00763
:103A700002D5204600F024F9700702D5204600F058
:103A800091F8300702D5204600F024F9F00602D55F
:103A90002046FFF7D3FFB00602D52046FFF7CAFF46
:103AA000700602D52046FFF741FF300604D505F029
:103AB00001012046FFF72CFFA80702D5204600F0A1
:103AC00003F90DF10602204602210223FFF772FFDF
:103AD0007CBD0000BCB510B30446807920B900203D
:103AE0006071204600F046F802201E496423A07150
:103AF0001D48425822F4004242501C4A1268C2EB50
:103B0000C202C2F34C425A430192019A4AB1019A4D
:103B1000013A019242585204F7D4002503E00125EE
:103B20001DE00125A560D0F8881041F40041C0F8DF
:103B300088100F490A6842F480520A60016841F413
:103B4000006101604FF40061016135B9206808F03F
:103B50002FFD0020A060012020710120A0712846C7
:103B6000BCBD00BF8CFCFFFF0804005818010020FA
:103B700090080058E0B50A480022016841F00101B0
:103B800001600021006800F00100019001983220DE
:103B9000FEF798FC3220BDE88C40FEF785BC00BFE4
:103BA0006400005850488168042008472DE9F84314
:103BB00004468079012802D16079012802D10220CF
:103BC000BDE8F88301201D4616460F466071204669
:103BD00008F060FD8649DFF81C820868894620F4F9
:103BE0000040086020461E21C04720463946C04795
:103BF000204600210027C047AF4206D2204631466A
:103C000008F0E8FC01370136F6E7D9F8000040F487
:103C10000040C9F80000204608F060FD00200121A6
:103C20006071A068A171002818BF0120BDE8F88369
:103C30002DE9F84304468079012802D160790128F2
:103C400002D10220BDE8F88301201D4616460F462A
:103C50006071204608F01EFD6549DFF8988108680C
:103C6000894620F40040086020461D21C047390ADB
:103C70002046C047F9B22046C04720460021002711
:103C8000C047AF4206D22046314608F0A3FC0137B8
:103C90000136F6E7D9F8000040F40040C9F800000A
:103CA000204608F01BFD002001216071A068A17171
:103CB000002818BF0120BDE8F88300BF9004005819
:103CC0000948816802200847074881684FF400705E
:103CD000084700BF044881680820084718020020F0
:103CE0000148816801200847180200202DE9F041B1
:103CF00004468079012802D16079012802D102208E
:103D0000BDE8F08101201D4616460F466071204631
:103D100008F0C0FC36490868884620F40040086076
:103D200020460E2108F086FC2046394608F082FC29
:103D300035B116F8011B204608F07CFC013DF7E781
:103D4000D8F8000040F40040C8F80000204608F011
:103D5000C5FC002001216071A068A171002818BF76
:103D60000120BDE8F08100BF900400582DE9F84320
:103D70000446807901281CBF0220BDE8F8830F4665
:103D800061790220012931D0A07101201D4616461B
:103D90006071204608F07EFC1549DFF858800868FD
:103DA000894620F40040086020460D21C047390AAA
:103DB0002046C047F9B22046C04735B116F8011B6E
:103DC000204608F037FC013DF7E7D9F8000040F441
:103DD0000040C9F80000204608F080FC00200121C6
:103DE0006071A068A171002818BF0120BDE8F883A8
:103DF0009004005835C600080248016821F002010D
:103E00000160704710E000E010B5044690F88000B3
:103E1000012804BF022010BD2420C4F884002068BB
:103E20000168026822F0010241F0005102600122A3
:103E300084F880204FF000526266016020460AF04C
:103E4000F1F90020202184F88000C4F8841010BD0E
:103E500090F88010012901D102210FE0012180F8A2
:103E60008010016851E8001F026841F0020142E839
:103E70000013002BF5D1002180F880100846704710
:103E800070477047B0B5044690F88000012804BF21
:103E90000220B0BD2420C4F88400206805680268B0
:103EA00022F001020260012284F88020826822F060
:103EB00060621143816020460AF0B4F92068202135
:103EC0000560002084F88000C4F88410B0BDB0B54F
:103ED000044690F88000012804BF0220B0BD2420D1
:103EE000C4F8840020680568026822F001020260BC
:103EF000012284F88020826822F0604211438160B0
:103F000020460AF08FF9206820210560002084F8FF
:103F10008000C4F88410B0BDBCB5044690F88000A1
:103F2000012804BF0220BCBD2420C4F884002068FE
:103F3000036823F0010303604FF0010384F880302D
:103F4000836823F4401343EA0103836059B943684B
:103F500091B223F0100319434160C2F30741426854
:103F600061F31F624260016841F001010160FEF7E8
:103F700083F803466FF07E404FF480010022002555
:103F8000009020460AF040FE08B1032003E0202004
:103F9000C4F88400002084F88050BCBD704770478E
:103FA00070470000F8B50446006840F62F01C2696A
:103FB00002EA010501688368202D0ED101F0200579
:103FC00003F08056AD1900F08280216F002900F0C7
:103FD00068812046BDE8F840084740F60F052A42B0
:103FE00075D0B04D01EA0506AF4D1D4076196ED073
:103FF000D60718BF11F4807607D001260662D4F8E0
:104000008C6046F00106C4F88C6003F00106970747
:1040100008D53EB102270762D4F88C7047F0040738
:10402000C4F88C70570708D53EB104260662D4F850
:104030008C6046F00206C4F88C6016070BD501F0C0
:104040002006354307D008250562D4F88C5045F08A
:104050000805C4F88C5015050BD511F0806508D003
:104060004FF400650562D4F88C5045F02005C4F883
:104070008C50D4F88C50002D00F0138112F02002E7
:104080001EBF01F0200103F0805211EB020140F04D
:10409000F680D4F88C10806801F0280100F0400010
:1040A000401800F0CC8020460AF0BAF920688168F8
:1040B000490640F1DF8050E8020F216820F04000FF
:1040C00041E80202002A00F0CB802068F3E701EA11
:1040D0000205EE06E66E39D5012E37D110210162B8
:1040E000816849063FD4B4F85E10B4F85C20B4F897
:1040F0005E30002B00F0D580511A0A0401D1D0E0C7
:10410000206850E8000F226820F4907042E8000315
:10411000002BF5D16648226852E8022F236802403E
:1041200043E80225002DF6D12020C4F888000020A5
:104130002067E066206850E8000F226820F0100039
:1041400042E80003002BF5D189B253E0D60256D5E0
:1041500013F4800653D04FF4801101622046BDE86D
:10416000F840FFF71CBFE16F0A6853689DB2002D4D
:1041700000F09780B4F85C108D4280F09280A4F833
:104180005E301268920631D450E8000F216820F4A6
:10419000807041E800020AB12068F5E7206850E825
:1041A000020F216820F0010041E80202002AF5D147
:1041B000206850E8020F216820F0400041E8020228
:1041C000002AF5D12020C4F888000020E06620688D
:1041D00050E8000F216820F0100041E80002002A9A
:1041E000F5D1E06FFDF720FCB4F85C10B4F85E0088
:1041F000081A81B22046BDE8F840FFF741BE160616
:1042000007D501F0800603F400039B1901D0616F0C
:10421000DCE66B0609D4100239D511F0804036D0A7
:104220002046BDE8F840FFF7B9BE50E8000F21680E
:1042300020F0400041E8000242B12068F5E7204646
:10424000FFF7AEFE0020C4F88C00F8BD00206067C8
:104250002020C4F884002046BDE8F84000F0ECB906
:10426000E06F38B111498163FDF716FCC8B1E06F0A
:10427000816BAFE62046BDE8F840FFF791BE216FA5
:1042800000293FF406AF20468847206801E7D001A7
:1042900007D5B1F1FF3F04DC2046BDE8F840FFF749
:1042A000F0BDF8BD200100040100001077E3000814
:1042B000FEFFFFEF10B5B0B10446D0F8840028B976
:1042C000002084F88000204600F042F82420C4F842
:1042D00084002068016821F00101016020460AF095
:1042E00003FB012801D1012010BDA06A10B12046B6
:1042F00009F0BAFF2068416821F49041416081686B
:1043000021F02A018160016841F00101016020462D
:10431000BDE8104009F0FDBF10B504460068CB4968
:10432000884218BF10BD0948016821F400310160BE
:104330004FF090400C21FDF73DFDA06FFDF7F2FB23
:104340002520BDE81040FEF79DB800BF580000587A
:1043500070B594B004460EA81421FBF741FF6846DF
:104360003821FBF73DFF2068B84988424FD12948E2
:104370000225009502906846FEF73AF908B1FCF76D
:104380005FFE25480026C16841F40031C160C16864
:1043900001F4003113911399016841F001010160AA
:1043A0000EA9006800F0010013900720129003206E
:1043B00011900C20CDE90F560E9013984FF09040BD
:1043C000FDF784FD1548164D142380211022C0E905
:1043D0000053C0E90226C0E90416C0E90666066279
:1043E000FDF73CFC08B1FCF72BFE0C4D10212846D4
:1043F000FDF788FB08B1FCF723FE252002210022EF
:10440000AC62A567FEF75EF82520FEF74DF814B004
:1044100070BD00BF04000C004C00005804140020C4
:10442000580002402DE9FC470546D0F888002028B6
:104430000AD18A460120002964D01646002A61D09C
:1044400095F88000012802D10220BDE8FC870020F9
:1044500022211C46C5F88C00C5F88810012185F87A
:104460008010E866FDF708FEA5F85E608046A5F8B6
:104470005C60A86898B1B0F1805F14D0B0F5805F3F
:1044800015D12F69FF26D146002F08BF40F2FF1635
:10449000A5F860601CBF4FF0000957460FE028697F
:1044A00038B9FF2606E0286918B13F2602E0002649
:1044B00000E07F264FF000095746A5F86060002015
:1044C00085F88000B5F85E00C0B1284620210022A2
:1044D000434600940AF098FBB0B92868406A1FB1BF
:1044E000304007F8010B03E03040002729F8020BA9
:1044F000B5F85E000138A5F85E00E3E72020C5F8B6
:1045000088000020BDE8FC870320BDE8FC87000090
:10451000B0B5D0F88830202B06D1012329B122B1C3
:1045200090F88030012B02D102231846B0BD002341
:104530000C4CC366012380F880300368A34202D08C
:104540005C68240203D40AF0C1FA0023EDE753E8C3
:10455000003F046843F0806344E80035002DF2D04A
:104560000368F4E70080004010B50446006837494E
:10457000884218BF10BD0848436833B1D4F88C0096
:1045800018B9054801210022984703492046012215
:10459000BDE81040FFF7BCBF40010020F8B504465D
:1045A000D0F88400202806D161B3134652B394F8A2
:1045B0008000012801D10220F8BD00250120A4F8C7
:1045C0005630C4F88C5084F880002120A4F8543070
:1045D0002165C4F88400A06FB0B1144A144E154F81
:1045E000C0E90B76C0E90D2522682832FDF796FB5D
:1045F00050B11020C4F88C00002084F880002020E6
:10460000C4F884000120F8BD2068402184F880505F
:10461000016250E8020F216840F0800041E8020288
:104620000AB12068F5E70020F8BD00BF87E3000865
:104630001BE40008DDE3000800680449884218BF55
:104640007047034801680020084700BF004400404D
:10465000BC12002070470000F8B52E4E05460C46EF
:1046600096F80401022802D02B48C06A804701F066
:10467000C9F838B1022001F0DAF8002001F0BBF8E7
:10468000012700E0002796F80401012813D101F06A
:10469000BFF830B1002001F0CEF8002001F0C2F8E0
:1046A000012701F0B3F830B1002001F0C2F800207A
:1046B00001F0B4F824E01FBB184F97F8941497F852
:1046C0001E0431B108B187F84544204601F062FA72
:1046D00010E008B187F84554284601F05BFAF06A0B
:1046E0000AF004FDD7F8B413884209D307F56670C1
:1046F0000AF0A2FD97F8950440F0200087F8950491
:1047000096F804010549022818BF062081F8940490
:10471000F8BD00BF8C85002074FF00089C0B0020B2
:10472000FEE7000010B5124C124A134B0120002185
:10473000C4E90032C4E9021004F110001421FBF7AF
:104740004FFD2046FDF7FEFC08B1FCF779FC084858
:104750000021FDF7ADFC08B1FCF772FC0448002114
:10476000FDF7CBFC18B1BDE81040FCF769BC10BDEB
:10477000641400205D3E3020005C004010B594B011
:104780000EA81421FBF72CFD6C463421201DFBF7ED
:1047900027FD4FF4401005904FF4807000902046A4
:1047A000FDF726FF08B1FCF74BFC022000F0B2F940
:1047B00004200EA9129000201190012010901220C8
:1047C0000F904FF4C0400E900748FDF77FFB07485D
:1047D000016841F400010160006800F400001390DA
:1047E000139814B010BD00BF0004004858000058D2
:1047F00000688169890744BF002181628169C90716
:1048000003D1816941F00101816170472DE9F047D1
:104810008A460168044600278869C00601D4002042
:1048200049E0102090460AF101064FF020090025CA
:10483000C861886900F02000284337D10025002E88
:10484000F7D0FDF719FC2168BAF1000F04D0A0EBF6
:10485000080000255045ECD94A6894F84230886930
:10486000202B0CD012F4804209D110F4004006D065
:10487000486840F480404860FDF7FEFB8046002514
:10488000216888698006D4D4FDF7F6FBA0EB080008
:104890001A28F5D3606C012540F02000606484F88C
:1048A000419084F8407084F84270E9E70DB9202007
:1048B000C861012004278A69D30505D54FF48070AB
:1048C00047F00107C8610120530504D54FF480600B
:1048D0000837C8610120920503D438B90020BDE82B
:1048E000F0874FF4007047F00207C8612046FFF7D9
:1048F0007FFF20684C4A416811404160606C38433A
:104900006064202084F84100002084F8400084F88E
:1049100042000120BDE8F08770B500686FF39F2169
:10492000049D074E1943446841EA0241294324EAA1
:10493000555421F0004134402143416070BD00BF17
:10494000009C00FC2DE9F843DDF820801D4616464A
:104950000F4681465C1CD9F8000080693840C01BB6
:10496000B0FA80F04009B04219D1002CF3D0FDF725
:1049700083FB1DB1A0EB0800A842ECD9D9F8440094
:1049800040F02000C9F84400202089F841000020B0
:1049900089F8400089F842000120BDE8F883002032
:1049A000BDE8F88370B515460E4604462068806958
:1049B00040071FD4204631462A46FFF727FF80BB19
:1049C00020688169890610D4FDF756FB16B1401B9B
:1049D000B042EBD9606C40F020006064002084F8A5
:1049E0004000202084F841001BE08169490703D57D
:1049F000218D09B1002070BD816900220A4DC906D0
:104A000042BF1022C2610422626420220021C261DE
:104A100043682B40436084F8412084F8401084F8B8
:104A20004210012070BD00BF00E800FE70B51546C1
:104A30000E46044620688069800619D42046314617
:104A40002A46FFF7E3FE88B9FDF716FB16B1401BB7
:104A5000B042EFD9606C40F020006064202084F800
:104A60004100002084F8400084F84200012070BD1D
:104A7000002070BDF8B515460E4604464F1C206850
:104A8000806980071BD4204631462A46FFF7BEFEC8
:104A900098B9002FF3D0FDF7EFFA16B1401BB042E2
:104AA000EDD9606C40F020006064202084F8410063
:104AB000002084F8400084F842000120F8BD002066
:104AC000F8BD000081B005490A6802430A60096820
:104AD00008400090009801B0704700BF480000589F
:104AE00081B019490A6802430A60096808400090C9
:104AF000009801B0704700BF81B01348016841F0D1
:104B000002010160006800F002000090009801B00E
:104B1000704700BF81B00C490A6802430A60096807
:104B200008400090009801B0704700BF81B006486F
:104B3000016841F004010160006800F00400009089
:104B4000009801B0704700BF4C00005881B0054983
:104B50000A6802430A60096808400090009801B0A2
:104B6000704700BF60000058064A6FF47F2161EA79
:104B7000101100F47F401368194041EA00101060E2
:104B8000704700BF880000582DE9F04190B0754D86
:104B90000146142205F140000AF0E0F900202870D7
:104BA00003F096F995F840204068D040C00708D03F
:104BB00005F10C0005F12C0101F0DAFA40B1FF26F5
:104BC000CCE0754B0020002101220AF0F9F8FEE745
:104BD00027208DF81C0007A801F01AFFF0B128204B
:104BE0008DF81C006868006940B107A801F02AFE32
:104BF000686840F28C5102690898904727208DF828
:104C00001C0007A801F004FF58B901208DF81C0012
:104C100007A801F017FE9DF8200010B10120687070
:104C200001E0687810B36868C16909B1002088475D
:104C3000062007AC8DF81C00204601F003FE4A4810
:104C40000899016327208DF81C00204601F0FAFD29
:104C5000089890F8401090F8042190F8060185F823
:104C6000401085F8412085F8420014E0002007AC90
:104C7000089005208DF81C00204601F0C9FE6868E8
:104C8000C068804738490890086306208DF81C00EA
:104C9000204601F0BDFE022007AC8DF81C00204626
:104CA00001F0D0FD304E0899082206F11C000AF0F0
:104CB000C2FD03208DF81C00204601F0C3FD0899B9
:104CC00006F1240008220AF0B6FD08F061FC96F80F
:104CD000300096F8311096F8322096F833300026DE
:104CE000CDE90032CDE9021020A3022000210022EC
:104CF0000AF066F80120A14F4FF00F088DF8200050
:104D000020468DF81C80B84710208DF820608DF863
:104D10001C002046B84704208DF81C0095F842007E
:104D20008DF820002046B84738208DF81C00286DEB
:104D300008902046B84795F8400005A98DF81480E2
:104D400006F0C7FB002818BF012085F84600142094
:104D500000F096FA95F8460002F0A4FF70B210B089
:104D6000BDE8F081900200207C0000202323232353
:104D7000232320446576416464723A202020202059
:104D8000253032583A253032583A253032583A25B3
:104D90003032580D0A000000D2050108FEB5092086
:104DA0008DF8040001A802F06BF8DA49059A002892
:104DB0008A6018BF4FF0FF3006B080BD10B58AB0D2
:104DC00038B1044600208DF8040001A801F03AFD36
:104DD00008B1FF2003E09DF808002070002040B2D9
:104DE0000AB010BDEF488068704700BF10B58AB0A8
:104DF00038B1044620208DF8040001A801F022FDFE
:104E000008B1FF2006E09DF80800E649207081F80F
:104E10004400002040B20AB010BD00BF10B58AB0F7
:104E200038B1044621208DF8040001A801F00AFDE4
:104E300008B1FF2003E09DF808002070002040B278
:104E40000AB010BD21B1012804D028B94C4802E0B5
:104E5000FF2002E002480860002040B2704700BF17
:104E60000100010280B501F0DFF8002818BF6FF0E3
:104E7000010080BD2DE9F8430A46CA49D0F818C0A0
:104E8000DFF844E0DFF84480DFF84490486090E8C1
:104E90003800D0E90F7641F81C2F0E4A41E9042969
:104EA00041E9028E0C4A406CC1E9017601F10C0621
:104EB00039C60020C1E9072C00F0BAF8002818BF55
:104EC0004FF0FF30BDE8F88381820008F5810008CB
:104ED000758100083D810008DD820008F0B58FB0C3
:104EE000E64E0C46012202288DF8282096F8441040
:104EF0008DF82D1008D1E04802218DF82C10C471D6
:104F0000817102F0B5FE2DE0DB484FF480738DF81F
:104F10002C20C471A0F8053001717078C0B91F2031
:104F200001AD164F8DF808108DF804002846B847DB
:104F300020208DF8040096F844008DF808002846DB
:104F4000B8470F48029029208DF804002846B8473A
:104F500002F08EFE01208DF808008DF8040001A8F3
:104F600001F056FD7078012808BF002C02D00AA875
:104F700001F086FF0E98B0600FB0F0BD116A000816
:104F80000004000180B58AB001208DF8040001A85A
:104F900001F058FCB0FA80F09DF808104009002993
:104FA00018BF012108400AB080BD000010B58AB0CA
:104FB000FFF758FF044630BB03F096F9811C14D06C
:104FC00088B9AE4C6068406968B127208DF804004C
:104FD00001A801F037FC60684FF4B26142690298A1
:104FE0009047002402E0FF2400E0F82403F08AF94F
:104FF00008B1FF2407E034B9A0484068C16909B18D
:1050000001208847002460B20AB010BDB0B59B4DA6
:105010000024052C08D005EB8400406D10B1C06859
:10502000804718B90134F4E70020B0BD0120B0BDBD
:10503000B0B508B1FF201AE00C46054600F022FB8F
:105040000028F7D08D4901EB850249685065094A6F
:105050008B6B8262084AC2628A69896CC0E90C3132
:1050600006494261F222436820469847002040B238
:10507000B0BD00BFDD4E00089D4D00087608002041
:10508000F8B57E4F0C4605460026052E08BFF8BD34
:1050900007EB8600406D78B1032D0DD8DFE805F0F1
:1050A00002040608816904E0C16902E0016A00E0C7
:1050B000416A09B1204688470136E6E77CB502F02F
:1050C00085F86E4C0025052D10D004EB8506706D1B
:1050D00050B1042D08D8016931B1806820B18047F2
:1050E00010B1706D006980470135ECE7FFF78EFF66
:1050F00060B92078012809D194F84310002568464A
:105100000022CDE9005500F04FF800B17CBD2570BC
:105110007CBD00BF9002002010B58AB0044601F0AB
:10512000C9F908B1FE240DE0FFF72CFF012808D1D2
:1051300000208DF8040001A801F084FB28B1FF24B1
:1051400000E0FD2460B20AB010BD9DF80800A04246
:1051500026D0022C14D0012CF1D00CBB0024002846
:10516000F0D001A88DF8084001F052FC0028E6D1EB
:1051700042484068016B99B1002000248847E1E76C
:105180000028DCD102208DF8080001A801F040FCC5
:105190000028D4D139484068016B09B10220884702
:1051A0000024CFE7900200202DE9F04186B014469C
:1051B0000E46054601F07EF908B1FE2157E0FFF7E3
:1051C000E1FE012818D12C4F002E694687F83C607B
:1051D00018BF01268DF80460284E96F844008DF81B
:1051E0001200687802F046FC60B100204FF0F90828
:1051F00003908DF804000DE01F498879C979FFF705
:105200006DFE25E0297868784FF0FF088DF80810CA
:1052100069680391D5E90012ADF8100001A8C7E94B
:10522000111296F8441087F83E10214601F056F905
:1052300005991128B16015D8FE21DFE800F00B18A0
:105240001313131313091313131513131818181723
:10525000FD210CE00021B8F1F90F317008BF6FF0AB
:10526000060104E0FF2102E0FA2100E0FB2148B240
:1052700006B0BDE8F08100BF7C0000209002002055
:1052800080B58AB0029023208DF8040001A801F0B7
:10529000BFFB002818BF4FF0FF300AB080BD80B5BB
:1052A00000F0A8FE002818BF6FF0010080BD0000CC
:1052B000BCB588B181B1E54B18600120996283F8D3
:1052C00025204FF0FF310022187700200090181D94
:1052D0000B4B09F0E7FE03E0DC4800210177016099
:1052E000DA4C00250021202204F13000A5850AF0C7
:1052F000B6FAA4F8505084F82E506577BCBD00BFB4
:1053000005860008D148007F704700BFCF48407F26
:10531000704700BF2DE9F0478AB0CC4C217F0029AF
:1053200000F09181C17819B9827B002A00F08B814D
:10533000A28DE02902F10102A28540F08481417B27
:10534000002900F08081002184F8261081680A7805
:10535000222A3AD8DFE812F023006201BF00C5001C
:10536000CC00D900E000EC00F80014012D0172011E
:105370007201720172017201720172017201720195
:105380007201720172017201720172017201720185
:105390007201720172017201300134013801A16A97
:1053A00001200022062384F826000A7094F82610B3
:1053B0004A1C84F82620A26A535494F826104A1CEA
:1053C00084F82620A26A50542BE17D2A00F0048143
:1053D0007E2A00F01A817F2A40F030812A208DF841
:1053E000040001A801F02EFA94F82610A26A7F2387
:1053F0009DF80CC09DF80DE09DF80E809DF80F9073
:105400009DF808A09DF809609DF80A70481C84F872
:1054100026009DF80B00535494F8263021685D1C3B
:10542000CA7884F82650A56AEA5494F826308A7817
:105430005D1C84F82650A56AEA5494F826304A7810
:105440005D1C84F82650A56AEA5494F82620097851
:10545000531C84F82630A36A995494F826104A1CE9
:1054600084F82620A26A505494F82600411C84F83F
:105470002610A16A0F5494F82600411C84F82610C7
:10548000A16A0E5494F82600411C84F82610A16AE3
:1054900001F800A094F82600411C84F82610A16AA7
:1054A00001F8009094F82600411C84F82610A16AA7
:1054B00001F8008094F82600411C84F82610A16AA7
:1054C00001F800E094F82600411C84F82610A16A37
:1054D00001F800C0A5E05E480121826A02209047E1
:1054E0009FE04878012184F8511084F8520098E038
:1054F00004208DF804004878002818BF01208DF89A
:10550000080001A801F084FA8BE04878002818BF51
:10551000012002F0C7FB84E048780A2800F281806D
:105520002168496800297CD04AA252F8200051E045
:105530004878411E012974D8013818BF012021681C
:1055400084F82400896844E0A26A0121082384F8D1
:10555000261013700122037B94F82550AB4238BF0C
:105560001D46AA425DD2836894F8265001325B5CE6
:105570006E1C013184F82660A66A01337355EAE790
:105580000120092184F82600A06A017094F8260001
:1055900094F82C20411C84F82610A16A0A5494F82F
:1055A000260094F82D20411C84F82610A16A0A5484
:1055B00037E00020A08534E004208DF8040020E0CE
:1055C0002348C06A80472CE04878216884F831007D
:1055D000C96831B3884724E0007B072821D1B1F89E
:1055E0000100ADF808004879B1F8032042EA004014
:1055F00064225043039005208DF8040088798DF8CB
:10560000100001A801F03CFC0BE000208DF8080020
:1056100039208DF8040001A801F0FAF9012084F87E
:10562000500094F8260048B104344FF47A712046B3
:1056300009F0B4FD204609F0C9FD04E0201D09F081
:10564000FBFD002060770AB0BDE8F08798010020DC
:10565000D400002000000000881300001027000084
:10566000204E000030750000409C000050C3000038
:1056700060EA0000C0D4010080A9030000530700C5
:1056800070477047254870477CB5234E707F38B30C
:1056900009F022FD356A0446FFF7A4FB2844844242
:1056A0002ED996F8260058B38DF80100E02096F820
:1056B000241001228DF80000B06A01906846FFF7BF
:1056C00073FD40F00400C0B2FE2814D1351D4FF424
:1056D0007A71284609F062FD284609F077FD0EE050
:1056E00096F8510060B1002086F8510096F85200FB
:1056F000FFF712FD04E0002086F826007077346280
:1057000096F8500030B1002086F850000348406BF6
:1057100000B180477CBD00BF98010020D40000206C
:105720002DE9F04F89B08A460546447B90F80EB0CB
:1057300090F90C804068129900270860687800286A
:105740004CD0CDE901230220E97B8DF81C00287C98
:105750008DF81E1007A905F0BCFE29896A684FFA6A
:1057600080F94E468A4228BF0127C145B8BF464648
:10577000688943189A420AD30A2007A98DF81C00A9
:10578000287C05F0A6FE0446688929896A6801EB31
:1057900040039A421FD3511AB1FBF0F202FB1010E2
:1057A000C8B9C1450ADB287830B1022003A98DF8B9
:1057B0001800287C05F09EFE4FF0010B2120E97BAC
:1057C0008DF81D608DF81C00287C8DF81E1007A92F
:1057D00005F07FFE0646DDE9012301E05FFA88F669
:1057E0008AF80060147083F800B0384609B0BDE84C
:1057F000F08F0020704770477047704770477047C0
:10580000002070470020704700207047002070473C
:10581000002070470020704702207047704700202A
:105820007047704770477047704700207047704757
:1058300070477047704770477047022070470000FC
:105840002DE9F843002940D0DFF804929046054640
:10585000002209F1080009EB0217002407F10803F0
:10586000102C0AD0065D0134002EF9D00132103020
:10587000202AF0D10220BDE8F883D9F8000008B949
:10588000C9F80030D9F8040000B1036000201FFA05
:1058900088F2C9F80430C7F810803D73186007F12A
:1058A0000D0009F0C8FF112D12D80120484A00FA56
:1058B00005F111420CD03875D9F808024044013086
:1058C000C9F808020020BDE8F8830120BDE8F8838C
:1058D0000020F0E7811E0020112913D8DFE801F035
:1058E00013090B090D0F0B0B0912120F12120D09E0
:1058F00011110520704702207047012070470620D3
:1059000070470420704703207047000028B15049B9
:10591000D1F808120160002070470120704700BFD5
:10592000B0B54B4C00214FF403720025204609F01E
:1059300096FF0020C4E90055B0BD00BF10B548B1C6
:1059400043490B68834207D043B11A461B68834220
:10595000FAD104E0012416E002680A6000224B68D4
:10596000834208BF4A600AB1036813608368D1F8B4
:10597000082200240460DB431A44C1F808220021F5
:10598000102209F06CFF204610BD00BF10B5304852
:1059900004683CB120462468017B0029F9D1FFF757
:1059A000CDFFF6E7002010BD70B52948084D012451
:1059B00006685EB13046366801791129F9D804FAD3
:1059C00001F12942F5D0FFF7B9FFF2E7002070BDE1
:1059D000200702002DE9F0410746012029B31646B1
:1059E0001AB31B4D884600202D68B5B1AB68C1B213
:1059F0007A1A01339A4210D32A79441C56FA84F059
:105A00007254691D2A8909F016FF287A2044EBE7B1
:105A10002C682846FFF792FF2546002DF8D10C4848
:105A2000D0F80802C8F800000020BDE8F08100BFEF
:105A300058B1002101700649096821B10A7B002A8A
:105A4000FAD001210170002070470120704700BF8B
:105A5000680900205C4991F82020042A84BF0020B6
:105A60007047013281F820208A680068134643F8A5
:105A7000040B01F11C0082424FF0010008BF01F14C
:105A80000C038B60704700BF4F4890F820007047B0
:105A900080B54D4991F820202AB14968FBF716FBE3
:105AA00008B1407880BD012080BD00BF2DE9FC41D8
:105AB000454E044600250DF1040896F82070BD42BD
:105AC00028BFBDE8FC817068837801784278217036
:105AD000627033B1306881682046884700F036F83C
